{
  "contractName": "quanlytruyxuat",
  "abi": [
    {
      "anonymous": false,
      "inputs": [
        {
          "indexed": false,
          "internalType": "uint256",
          "name": "index",
          "type": "uint256"
        }
      ],
      "name": "Added",
      "type": "event"
    },
    {
      "inputs": [
        {
          "internalType": "string",
          "name": "tensp",
          "type": "string"
        },
        {
          "internalType": "string",
          "name": "date",
          "type": "string"
        },
        {
          "internalType": "string",
          "name": "mota",
          "type": "string"
        },
        {
          "internalType": "string",
          "name": "diachi",
          "type": "string"
        }
      ],
      "name": "themsanpham",
      "outputs": [
        {
          "internalType": "bool",
          "name": "",
          "type": "bool"
        }
      ],
      "stateMutability": "nonpayable",
      "type": "function"
    },
    {
      "inputs": [
        {
          "internalType": "uint256",
          "name": "id",
          "type": "uint256"
        },
        {
          "internalType": "string",
          "name": "noisanxuat",
          "type": "string"
        },
        {
          "internalType": "string",
          "name": "ngaygieotrong",
          "type": "string"
        },
        {
          "internalType": "string",
          "name": "ngaythuhoach",
          "type": "string"
        },
        {
          "internalType": "string",
          "name": "cacloaithuocsudung",
          "type": "string"
        }
      ],
      "name": "thongtinnongdan",
      "outputs": [
        {
          "internalType": "bool",
          "name": "",
          "type": "bool"
        }
      ],
      "stateMutability": "nonpayable",
      "type": "function"
    },
    {
      "inputs": [
        {
          "internalType": "uint256",
          "name": "id",
          "type": "uint256"
        },
        {
          "internalType": "string",
          "name": "noidi",
          "type": "string"
        },
        {
          "internalType": "string",
          "name": "noiden",
          "type": "string"
        }
      ],
      "name": "thongtinvanchuyen",
      "outputs": [
        {
          "internalType": "bool",
          "name": "",
          "type": "bool"
        }
      ],
      "stateMutability": "nonpayable",
      "type": "function"
    },
    {
      "inputs": [
        {
          "internalType": "uint256",
          "name": "id",
          "type": "uint256"
        },
        {
          "internalType": "string",
          "name": "diachi",
          "type": "string"
        },
        {
          "internalType": "string",
          "name": "ngaynhap",
          "type": "string"
        },
        {
          "internalType": "string",
          "name": "cachbaoquan",
          "type": "string"
        }
      ],
      "name": "thongtinnhabanle",
      "outputs": [
        {
          "internalType": "bool",
          "name": "",
          "type": "bool"
        }
      ],
      "stateMutability": "nonpayable",
      "type": "function"
    },
    {
      "inputs": [
        {
          "internalType": "string",
          "name": "_a",
          "type": "string"
        },
        {
          "internalType": "string",
          "name": "_b",
          "type": "string"
        }
      ],
      "name": "concat",
      "outputs": [
        {
          "internalType": "string",
          "name": "",
          "type": "string"
        }
      ],
      "stateMutability": "nonpayable",
      "type": "function"
    },
    {
      "inputs": [
        {
          "internalType": "uint256",
          "name": "id",
          "type": "uint256"
        }
      ],
      "name": "truyxuatnhaphanphoi",
      "outputs": [
        {
          "internalType": "string",
          "name": "",
          "type": "string"
        }
      ],
      "stateMutability": "nonpayable",
      "type": "function"
    },
    {
      "inputs": [
        {
          "internalType": "uint256",
          "name": "id",
          "type": "uint256"
        }
      ],
      "name": "truyxuatnongdan",
      "outputs": [
        {
          "internalType": "string",
          "name": "",
          "type": "string"
        }
      ],
      "stateMutability": "nonpayable",
      "type": "function"
    },
    {
      "inputs": [
        {
          "internalType": "uint256",
          "name": "id",
          "type": "uint256"
        }
      ],
      "name": "truyxuatvanchuyen",
      "outputs": [
        {
          "internalType": "string",
          "name": "",
          "type": "string"
        }
      ],
      "stateMutability": "nonpayable",
      "type": "function"
    },
    {
      "inputs": [
        {
          "internalType": "uint256",
          "name": "id",
          "type": "uint256"
        }
      ],
      "name": "truyxuatnhabanle",
      "outputs": [
        {
          "internalType": "string",
          "name": "",
          "type": "string"
        }
      ],
      "stateMutability": "nonpayable",
      "type": "function"
    }
  ],
  "bytecode": "0x6080604052600060015534801561001557600080fd5b5061206b806100256000396000f3fe608060405234801561001057600080fd5b50600436106100935760003560e01c806389c19ddb1161006657806389c19ddb14610158578063b57ac0f614610188578063d071832e146101b8578063ed330e3d146101e8578063fe9635101461021857610093565b8063018f2f7a146100985780632c1abc20146100c8578063533dc9ce146100f85780637b4d66a614610128575b600080fd5b6100b260048036038101906100ad91906118a6565b610248565b6040516100bf919061196c565b60405180910390f35b6100e260048036038101906100dd9190611ac3565b6105d7565b6040516100ef9190611bb5565b60405180910390f35b610112600480360381019061010d9190611bd0565b61098b565b60405161011f9190611bb5565b60405180910390f35b610142600480360381019061013d9190611cbb565b610ae2565b60405161014f9190611bb5565b60405180910390f35b610172600480360381019061016d9190611d46565b610beb565b60405161017f919061196c565b60405180910390f35b6101a2600480360381019061019d91906118a6565b610d81565b6040516101af919061196c565b60405180910390f35b6101d260048036038101906101cd9190611dbe565b611023565b6040516101df9190611bb5565b60405180910390f35b61020260048036038101906101fd91906118a6565b611153565b60405161020f919061196c565b60405180910390f35b610232600480360381019061022d91906118a6565b611308565b60405161023f919061196c565b60405180910390f35b606060015482111561025957600080fd5b606061030581600080868152602001908152602001600020600601600101805461028290611ea8565b80601f01602080910402602001604051908101604052809291908181526020018280546102ae90611ea8565b80156102fb5780601f106102d0576101008083540402835291602001916102fb565b820191906000526020600020905b8154815290600101906020018083116102de57829003601f168201915b5050505050610beb565b9050610346816040518060400160405280600181526020017f2c00000000000000000000000000000000000000000000000000000000000000815250610beb565b90506103f281600080868152602001908152602001600020600601600201805461036f90611ea8565b80601f016020809104026020016040519081016040528092919081815260200182805461039b90611ea8565b80156103e85780601f106103bd576101008083540402835291602001916103e8565b820191906000526020600020905b8154815290600101906020018083116103cb57829003601f168201915b5050505050610beb565b9050610433816040518060400160405280600181526020017f2c00000000000000000000000000000000000000000000000000000000000000815250610beb565b90506104df81600080868152602001908152602001600020600601600301805461045c90611ea8565b80601f016020809104026020016040519081016040528092919081815260200182805461048890611ea8565b80156104d55780601f106104aa576101008083540402835291602001916104d5565b820191906000526020600020905b8154815290600101906020018083116104b857829003601f168201915b5050505050610beb565b9050610520816040518060400160405280600181526020017f2c00000000000000000000000000000000000000000000000000000000000000815250610beb565b90506105cc81600080868152602001908152602001600020600601600401805461054990611ea8565b80601f016020809104026020016040519081016040528092919081815260200182805461057590611ea8565b80156105c25780601f10610597576101008083540402835291602001916105c2565b820191906000526020600020905b8154815290600101906020018083116105a557829003601f168201915b5050505050610beb565b905080915050919050565b60006105e161168b565b33816000019073ffffffffffffffffffffffffffffffffffffffff16908173ffffffffffffffffffffffffffffffffffffffff1681525050858160400181905250848160600181905250838160800181905250828160a0018190525060015481602001818152505080600080600154815260200190815260200160002060008201518160000160006101000a81548173ffffffffffffffffffffffffffffffffffffffff021916908373ffffffffffffffffffffffffffffffffffffffff1602179055506020820151816001015560408201518160020190805190602001906106cb9291906116ff565b5060608201518160030190805190602001906106e89291906116ff565b5060808201518160040190805190602001906107059291906116ff565b5060a08201518160050190805190602001906107229291906116ff565b5060c08201518160060160008201518160000160006101000a81548173ffffffffffffffffffffffffffffffffffffffff021916908373ffffffffffffffffffffffffffffffffffffffff160217905550602082015181600101908051906020019061078f9291906116ff565b5060408201518160020190805190602001906107ac9291906116ff565b5060608201518160030190805190602001906107c99291906116ff565b5060808201518160040190805190602001906107e69291906116ff565b50505060e082015181600b0160008201518160000160006101000a81548173ffffffffffffffffffffffffffffffffffffffff021916908373ffffffffffffffffffffffffffffffffffffffff16021790555060208201518160010190805190602001906108559291906116ff565b5060408201518160020190805190602001906108729291906116ff565b50505061010082015181600e0160008201518160000160006101000a81548173ffffffffffffffffffffffffffffffffffffffff021916908373ffffffffffffffffffffffffffffffffffffffff16021790555060208201518160010190805190602001906108e29291906116ff565b5060408201518160020190805190602001906108ff9291906116ff565b50606082015181600301908051906020019061091c9291906116ff565b5050509050506001600081548092919061093590611f09565b91905055507f64a55044d1f2eddebe1b90e8e2853e8e96931cefadbfa0b2ceb34bee36061941600180546109699190611f52565b6040516109769190611f95565b60405180910390a16001915050949350505050565b600060015486111561099c57600080fd5b6109a4611785565b33816000019073ffffffffffffffffffffffffffffffffffffffff16908173ffffffffffffffffffffffffffffffffffffffff16815250508581602001819052508481604001819052508381606001819052508281608001819052508060008089815260200190815260200160002060060160008201518160000160006101000a81548173ffffffffffffffffffffffffffffffffffffffff021916908373ffffffffffffffffffffffffffffffffffffffff1602179055506020820151816001019080519060200190610a799291906116ff565b506040820151816002019080519060200190610a969291906116ff565b506060820151816003019080519060200190610ab39291906116ff565b506080820151816004019080519060200190610ad09291906116ff565b50905050600191505095945050505050565b6000600154841115610af357600080fd5b610afb6117ca565b33816000019073ffffffffffffffffffffffffffffffffffffffff16908173ffffffffffffffffffffffffffffffffffffffff168152505083816020018190525082816040018190525080600080878152602001908152602001600020600b0160008201518160000160006101000a81548173ffffffffffffffffffffffffffffffffffffffff021916908373ffffffffffffffffffffffffffffffffffffffff1602179055506020820151816001019080519060200190610bbe9291906116ff565b506040820151816002019080519060200190610bdb9291906116ff565b5090505060019150509392505050565b606060008390506000839050600081518351610c079190611fb0565b67ffffffffffffffff811115610c2057610c1f611998565b5b6040519080825280601f01601f191660200182016040528015610c525781602001600182028036833780820191505090505b50905060008190506000805b8551811015610ce657858181518110610c7a57610c79612006565b5b602001015160f81c60f81b838380610c9190611f09565b945081518110610ca457610ca3612006565b5b60200101907effffffffffffffffffffffffffffffffffffffffffffffffffffffffffffff1916908160001a9053508080610cde90611f09565b915050610c5e565b5060005b8451811015610d7257848181518110610d0657610d05612006565b5b602001015160f81c60f81b838380610d1d90611f09565b945081518110610d3057610d2f612006565b5b60200101907effffffffffffffffffffffffffffffffffffffffffffffffffffffffffffff1916908160001a9053508080610d6a90611f09565b915050610cea565b50819550505050505092915050565b6060600154821115610d9257600080fd5b6060610e3e81600080868152602001908152602001600020600e016001018054610dbb90611ea8565b80601f0160208091040260200160405190810160405280929190818152602001828054610de790611ea8565b8015610e345780601f10610e0957610100808354040283529160200191610e34565b820191906000526020600020905b815481529060010190602001808311610e1757829003601f168201915b5050505050610beb565b9050610e7f816040518060400160405280600181526020017f2c00000000000000000000000000000000000000000000000000000000000000815250610beb565b9050610f2b81600080868152602001908152602001600020600e016002018054610ea890611ea8565b80601f0160208091040260200160405190810160405280929190818152602001828054610ed490611ea8565b8015610f215780601f10610ef657610100808354040283529160200191610f21565b820191906000526020600020905b815481529060010190602001808311610f0457829003601f168201915b5050505050610beb565b9050610f6c816040518060400160405280600181526020017f2c00000000000000000000000000000000000000000000000000000000000000815250610beb565b905061101881600080868152602001908152602001600020600e016003018054610f9590611ea8565b80601f0160208091040260200160405190810160405280929190818152602001828054610fc190611ea8565b801561100e5780601f10610fe35761010080835404028352916020019161100e565b820191906000526020600020905b815481529060010190602001808311610ff157829003601f168201915b5050505050610beb565b905080915050919050565b600060015485111561103457600080fd5b61103c611801565b33816000019073ffffffffffffffffffffffffffffffffffffffff16908173ffffffffffffffffffffffffffffffffffffffff168152505084816020018190525083816040018190525082816060018190525080600080888152602001908152602001600020600e0160008201518160000160006101000a81548173ffffffffffffffffffffffffffffffffffffffff021916908373ffffffffffffffffffffffffffffffffffffffff16021790555060208201518160010190805190602001906111089291906116ff565b5060408201518160020190805190602001906111259291906116ff565b5060608201518160030190805190602001906111429291906116ff565b509050506001915050949350505050565b606060015482111561116457600080fd5b606061121081600080868152602001908152602001600020600b01600101805461118d90611ea8565b80601f01602080910402602001604051908101604052809291908181526020018280546111b990611ea8565b80156112065780601f106111db57610100808354040283529160200191611206565b820191906000526020600020905b8154815290600101906020018083116111e957829003601f168201915b5050505050610beb565b9050611251816040518060400160405280600181526020017f2c00000000000000000000000000000000000000000000000000000000000000815250610beb565b90506112fd81600080868152602001908152602001600020600b01600201805461127a90611ea8565b80601f01602080910402602001604051908101604052809291908181526020018280546112a690611ea8565b80156112f35780601f106112c8576101008083540402835291602001916112f3565b820191906000526020600020905b8154815290600101906020018083116112d657829003601f168201915b5050505050610beb565b905080915050919050565b606060015482111561131957600080fd5b60606113c281600080868152602001908152602001600020600201805461133f90611ea8565b80601f016020809104026020016040519081016040528092919081815260200182805461136b90611ea8565b80156113b85780601f1061138d576101008083540402835291602001916113b8565b820191906000526020600020905b81548152906001019060200180831161139b57829003601f168201915b5050505050610beb565b9050611403816040518060400160405280600181526020017f2c00000000000000000000000000000000000000000000000000000000000000815250610beb565b90506114ac81600080868152602001908152602001600020600301805461142990611ea8565b80601f016020809104026020016040519081016040528092919081815260200182805461145590611ea8565b80156114a25780601f10611477576101008083540402835291602001916114a2565b820191906000526020600020905b81548152906001019060200180831161148557829003601f168201915b5050505050610beb565b90506114ed816040518060400160405280600181526020017f2c00000000000000000000000000000000000000000000000000000000000000815250610beb565b905061159681600080868152602001908152602001600020600401805461151390611ea8565b80601f016020809104026020016040519081016040528092919081815260200182805461153f90611ea8565b801561158c5780601f106115615761010080835404028352916020019161158c565b820191906000526020600020905b81548152906001019060200180831161156f57829003601f168201915b5050505050610beb565b90506115d7816040518060400160405280600181526020017f2c00000000000000000000000000000000000000000000000000000000000000815250610beb565b90506116808160008086815260200190815260200160002060050180546115fd90611ea8565b80601f016020809104026020016040519081016040528092919081815260200182805461162990611ea8565b80156116765780601f1061164b57610100808354040283529160200191611676565b820191906000526020600020905b81548152906001019060200180831161165957829003601f168201915b5050505050610beb565b905080915050919050565b604051806101200160405280600073ffffffffffffffffffffffffffffffffffffffff16815260200160008152602001606081526020016060815260200160608152602001606081526020016116df611785565b81526020016116ec6117ca565b81526020016116f9611801565b81525090565b82805461170b90611ea8565b90600052602060002090601f01602090048101928261172d5760008555611774565b82601f1061174657805160ff1916838001178555611774565b82800160010185558215611774579182015b82811115611773578251825591602001919060010190611758565b5b509050611781919061183f565b5090565b6040518060a00160405280600073ffffffffffffffffffffffffffffffffffffffff168152602001606081526020016060815260200160608152602001606081525090565b6040518060600160405280600073ffffffffffffffffffffffffffffffffffffffff16815260200160608152602001606081525090565b6040518060800160405280600073ffffffffffffffffffffffffffffffffffffffff1681526020016060815260200160608152602001606081525090565b5b80821115611858576000816000905550600101611840565b5090565b6000604051905090565b600080fd5b600080fd5b6000819050919050565b61188381611870565b811461188e57600080fd5b50565b6000813590506118a08161187a565b92915050565b6000602082840312156118bc576118bb611866565b5b60006118ca84828501611891565b91505092915050565b600081519050919050565b600082825260208201905092915050565b60005b8381101561190d5780820151818401526020810190506118f2565b8381111561191c576000848401525b50505050565b6000601f19601f8301169050919050565b600061193e826118d3565b61194881856118de565b93506119588185602086016118ef565b61196181611922565b840191505092915050565b600060208201905081810360008301526119868184611933565b905092915050565b600080fd5b600080fd5b7f4e487b7100000000000000000000000000000000000000000000000000000000600052604160045260246000fd5b6119d082611922565b810181811067ffffffffffffffff821117156119ef576119ee611998565b5b80604052505050565b6000611a0261185c565b9050611a0e82826119c7565b919050565b600067ffffffffffffffff821115611a2e57611a2d611998565b5b611a3782611922565b9050602081019050919050565b82818337600083830152505050565b6000611a66611a6184611a13565b6119f8565b905082815260208101848484011115611a8257611a81611993565b5b611a8d848285611a44565b509392505050565b600082601f830112611aaa57611aa961198e565b5b8135611aba848260208601611a53565b91505092915050565b60008060008060808587031215611add57611adc611866565b5b600085013567ffffffffffffffff811115611afb57611afa61186b565b5b611b0787828801611a95565b945050602085013567ffffffffffffffff811115611b2857611b2761186b565b5b611b3487828801611a95565b935050604085013567ffffffffffffffff811115611b5557611b5461186b565b5b611b6187828801611a95565b925050606085013567ffffffffffffffff811115611b8257611b8161186b565b5b611b8e87828801611a95565b91505092959194509250565b60008115159050919050565b611baf81611b9a565b82525050565b6000602082019050611bca6000830184611ba6565b92915050565b600080600080600060a08688031215611bec57611beb611866565b5b6000611bfa88828901611891565b955050602086013567ffffffffffffffff811115611c1b57611c1a61186b565b5b611c2788828901611a95565b945050604086013567ffffffffffffffff811115611c4857611c4761186b565b5b611c5488828901611a95565b935050606086013567ffffffffffffffff811115611c7557611c7461186b565b5b611c8188828901611a95565b925050608086013567ffffffffffffffff811115611ca257611ca161186b565b5b611cae88828901611a95565b9150509295509295909350565b600080600060608486031215611cd457611cd3611866565b5b6000611ce286828701611891565b935050602084013567ffffffffffffffff811115611d0357611d0261186b565b5b611d0f86828701611a95565b925050604084013567ffffffffffffffff811115611d3057611d2f61186b565b5b611d3c86828701611a95565b9150509250925092565b60008060408385031215611d5d57611d5c611866565b5b600083013567ffffffffffffffff811115611d7b57611d7a61186b565b5b611d8785828601611a95565b925050602083013567ffffffffffffffff811115611da857611da761186b565b5b611db485828601611a95565b9150509250929050565b60008060008060808587031215611dd857611dd7611866565b5b6000611de687828801611891565b945050602085013567ffffffffffffffff811115611e0757611e0661186b565b5b611e1387828801611a95565b935050604085013567ffffffffffffffff811115611e3457611e3361186b565b5b611e4087828801611a95565b925050606085013567ffffffffffffffff811115611e6157611e6061186b565b5b611e6d87828801611a95565b91505092959194509250565b7f4e487b7100000000000000000000000000000000000000000000000000000000600052602260045260246000fd5b60006002820490506001821680611ec057607f821691505b60208210811415611ed457611ed3611e79565b5b50919050565b7f4e487b7100000000000000000000000000000000000000000000000000000000600052601160045260246000fd5b6000611f1482611870565b91507fffffffffffffffffffffffffffffffffffffffffffffffffffffffffffffffff821415611f4757611f46611eda565b5b600182019050919050565b6000611f5d82611870565b9150611f6883611870565b925082821015611f7b57611f7a611eda565b5b828203905092915050565b611f8f81611870565b82525050565b6000602082019050611faa6000830184611f86565b92915050565b6000611fbb82611870565b9150611fc683611870565b9250827fffffffffffffffffffffffffffffffffffffffffffffffffffffffffffffffff03821115611ffb57611ffa611eda565b5b828201905092915050565b7f4e487b7100000000000000000000000000000000000000000000000000000000600052603260045260246000fdfea26469706673582212208b59d2ffec582781bfe37c525eccf8fdc076f798c2a392b49da5aa6dea3384fc64736f6c634300080a0033",
  "immutableReferences": {},
  "source": "pragma solidity >=0.4.22 <0.9.0; \r\n\r\ncontract quanlytruyxuat{\r\n    event Added(uint256 index);\r\n\r\n    struct addnongdan{\r\n        address taikhoan;\r\n        string noisanxuat;\r\n        string ngaygieotrong;\r\n        string ngaythuhoach;\r\n        string cacloaithuocsudung;\r\n    }\r\n\r\n    struct addvanchuyen{\r\n        address taikhoan;\r\n        string noidi;\r\n        string noiden;\r\n    }\r\n\r\n    struct addnhabanle{\r\n        address taikhoan;\r\n        string diachi;\r\n        string ngaynhap;\r\n        string cachbaoquan;\r\n    }\r\n\r\n    struct sanpham{\r\n        address tknguoitao;\r\n        uint id;\r\n        string tensp;\r\n        string ngaytao;\r\n        string mota;\r\n        string diachi;\r\n\r\n        addnongdan nongdan;\r\n        addvanchuyen vanchuyen;\r\n        addnhabanle nhabanle;\r\n    }\r\n\r\n    mapping(uint => sanpham) danhsachsp;\r\n    uint nextid=0;\r\n\r\n    function themsanpham(string memory tensp, string memory date, string memory mota, string memory diachi) public returns(bool){\r\n        sanpham memory newsp;\r\n        newsp.tknguoitao=msg.sender;\r\n        newsp.tensp=tensp;\r\n        newsp.ngaytao=date;\r\n        newsp.mota=mota;\r\n        newsp.diachi=diachi;\r\n        newsp.id=nextid;\r\n        danhsachsp[nextid]=newsp;\r\n        nextid++;\r\n        emit Added(nextid-1);\r\n        return true;\r\n    }\r\n\r\n    function thongtinnongdan(uint id, string memory noisanxuat,string memory ngaygieotrong, string memory ngaythuhoach,string memory cacloaithuocsudung) public returns (bool) {\r\n        require(id<=nextid);\r\n        addnongdan memory newnongdan;\r\n        newnongdan.taikhoan=msg.sender;\r\n        newnongdan.noisanxuat=noisanxuat;\r\n        newnongdan.ngaygieotrong=ngaygieotrong;\r\n        newnongdan.ngaythuhoach=ngaythuhoach;\r\n        newnongdan.cacloaithuocsudung=cacloaithuocsudung;\r\n        danhsachsp[id].nongdan=newnongdan;\r\n        return true;\r\n    }\r\n\r\n    function thongtinvanchuyen(uint id, string memory noidi,string memory noiden) public returns (bool) {\r\n        require(id<=nextid);\r\n        addvanchuyen memory newvanchuyen;\r\n        newvanchuyen.taikhoan=msg.sender;\r\n        newvanchuyen.noidi=noidi;\r\n        newvanchuyen.noiden=noiden;\r\n        danhsachsp[id].vanchuyen=newvanchuyen;\r\n        return true;\r\n    }\r\n\r\n    function thongtinnhabanle(uint id, string memory diachi,string memory ngaynhap,string memory cachbaoquan) public returns (bool) {\r\n        require(id<=nextid);\r\n        addnhabanle memory newnhabanle;\r\n        newnhabanle.taikhoan=msg.sender;\r\n        newnhabanle.diachi=diachi;\r\n        newnhabanle.ngaynhap=ngaynhap;\r\n        newnhabanle.cachbaoquan=cachbaoquan;\r\n        danhsachsp[id].nhabanle=newnhabanle;\r\n        return true;\r\n    }\r\n\r\n    function concat(string memory _a, string memory _b) public returns (string memory){\r\n        bytes memory bytes_a = bytes(_a);\r\n        bytes memory bytes_b = bytes(_b);\r\n        string memory length_ab = new string(bytes_a.length + bytes_b.length);\r\n        bytes memory bytes_c = bytes(length_ab);\r\n        uint k = 0;\r\n        for (uint i = 0; i < bytes_a.length; i++) bytes_c[k++] = bytes_a[i];\r\n        for (uint i = 0; i < bytes_b.length; i++) bytes_c[k++] = bytes_b[i];\r\n        return string(bytes_c);\r\n    }\r\n\r\n    function truyxuatnhaphanphoi(uint id) public returns (string memory) {\r\n        require(id<=nextid);\r\n        string memory output;\r\n        output=concat(output,danhsachsp[id].tensp);\r\n        output=concat(output,\",\");\r\n        output=concat(output,danhsachsp[id].ngaytao);\r\n        output=concat(output,\",\");\r\n        output=concat(output,danhsachsp[id].mota);\r\n        output=concat(output,\",\");\r\n        output=concat(output,danhsachsp[id].diachi);\r\n        return output;\r\n    }\r\n\r\n    function truyxuatnongdan(uint id) public returns (string memory) {\r\n        require(id<=nextid);\r\n        string memory output;\r\n        output=concat(output,danhsachsp[id].nongdan.noisanxuat);\r\n        output=concat(output,\",\");\r\n        output=concat(output,danhsachsp[id].nongdan.ngaygieotrong);\r\n        output=concat(output,\",\");\r\n        output=concat(output,danhsachsp[id].nongdan.ngaythuhoach);\r\n        output=concat(output,\",\");\r\n        output=concat(output,danhsachsp[id].nongdan.cacloaithuocsudung);\r\n        return output;\r\n    }\r\n\r\n    function truyxuatvanchuyen(uint id) public returns (string memory) {\r\n        require(id<=nextid);\r\n        string memory output;\r\n        output=concat(output,danhsachsp[id].vanchuyen.noidi);\r\n        output=concat(output,\",\");\r\n        output=concat(output,danhsachsp[id].vanchuyen.noiden);\r\n        return output;\r\n    }\r\n\r\n    function truyxuatnhabanle(uint id) public returns (string memory) {\r\n        require(id<=nextid);\r\n        string memory output;\r\n        output=concat(output,danhsachsp[id].nhabanle.diachi);\r\n        output=concat(output,\",\");\r\n        output=concat(output,danhsachsp[id].nhabanle.ngaynhap);\r\n        output=concat(output,\",\");\r\n        output=concat(output,danhsachsp[id].nhabanle.cachbaoquan);\r\n        return output;\r\n    }\r\n}",
  "sourcePath": "C:\\xampp\\htdocs\\DoAnERP_BlockChain\\contracts\\quanlytruyxuat.sol",
  "compiler": {
    "name": "solc",
    "version": "0.8.10+commit.fc410830.Emscripten.clang"
  },
  "schemaVersion": "3.4.3",
  "updatedAt": "2022-01-09T13:07:10.723Z",
  "networkType": "ethereum",
  "devdoc": {
    "kind": "dev",
    "methods": {},
    "version": 1
  },
  "userdoc": {
    "kind": "user",
    "methods": {},
    "version": 1
  }
}